:020000040800F2
:1000000068090020C9010008CB1400082713000864
:10001000C9140008EF0200082919000800000000B8
:10002000000000000000000000000000CF140008E5
:10003000F102000800000000CD140008D1140008EF
:10004000E3010008E3010008E3010008E301000800
:10005000E3010008E3010008E3010008E3010008F0
:10006000E3010008E3010008E3010008E3010008E0
:10007000E3010008E3010008E3010008E3010008D0
:10008000E3010008E3010008E3010008E3010008C0
:10009000E3010008E3010008E3010008E3010008B0
:1000A000E3010008E3010008E3010008E3010008A0
:1000B000E3010008E3010008E3010008E301000890
:1000C000E3010008E3010008E3010008E301000880
:1000D000E30100081D190008E3010008E30100081E
:1000E000E3010008E3010008E301000800F002F862
:1000F00000F05AF80AA090E8000C82448344AAF168
:100100000107DA4501D100F04FF8AFF2090EBAE865
:100110000F0013F0010F18BFFB1A43F0010318473B
:1001200048320000683200000A444FF0000C10F81A
:10013000013B13F0070408BF10F8014B1D1108BF65
:1001400010F8015B641E05D010F8016B641E01F805
:10015000016BF9D113F0080F1EBF10F8014BAD1C55
:100160000C1B09D16D1E58BF01F801CBFAD505E073
:1001700014F8016B01F8016B6D1EF9D59142D6D3CD
:10018000704700000023002400250026103A28BFF5
:1001900078C1FBD8520728BF30C148BF0B607047F9
:1001A0001FB51FBD10B510BD00F06CF81146FFF76C
:1001B000F7FF02F0B9F800F08AF803B4FFF7F2FF96
:1001C00003BC00F08DF8000009488047094800474B
:1001D000FEE7FEE7FEE7FEE7FEE7FEE7FEE7FEE7F7
:1001E000FEE7FEE704480549054A064B7047000054
:1001F00033150008ED00000868030020680900209E
:1002000068050020680500204FF0000200B5134685
:1002100094469646203922BFA0E80C50A0E80C5026
:10022000B1F12001BFF4F7AF090728BFA0E80C50D7
:1002300048BF0CC05DF804EB890028BF40F8042BD0
:1002400008BF704748BF20F8022B11F0804F18BF3D
:1002500000F8012B704770477047704710B500F0E9
:1002600009F8006810BD10B5044600F003F80460FA
:1002700010BD000000487047080300200048704788
:10028000080300207546FFF7F9FFAE4605006946F2
:10029000534620F00700854618B020B5FFF7A2FFAF
:1002A000BDE820404FF000064FF000074FF0000877
:1002B0004FF0000B21F00701AC46ACE8C009ACE8F8
:1002C000C009ACE8C009ACE8C0098D46704710B55C
:1002D0000446AFF300802046BDE81040FFF76DBF35
:1002E00001491820ABBEFEE7260002007047FEE77A
:1002F000704772B6FEE710B590F82110002202296F
:1003000005D00421816380F82020012010BD016800
:100310000B6823F00E030B6001680B6823F00103E8
:100320000B6090F84030C46B012101FA03F3636065
:1003300080F8211080F82020104610BD10B590F8EC
:1003400021100024022903D00421816301243DE00F
:1003500001680A6822F00E020A6001680A6822F049
:1003600001020A601A4A0168914201D1012121E08B
:10037000174A1432914201D110211BE0144A28324D
:10038000914201D1891515E0114A3C32914201D1C7
:1003900089140FE00E4A5032914202D14FF480315D
:1003A00008E00B4A6432914202D14FF4801101E01F
:1003B0004FF08071064A083A5160012180F82110FF
:1003C000002180F82010416B01B18847204610BD04
:1003D0000800024070B5044600F008F90546601CAC
:1003E00002D004480078044400F000F9401BA04209
:1003F000FAD370BD340200202DE9F84FDFF8B89130
:100400000024A9F1040B23460F2709F1040AABF1DC
:10041000040EC9E00125A5402A40AA427DD1674EBD
:10042000D1F804C0ACEB0608B44532D014DCBCF102
:10043000030F3AD009DCBCF1000F2AD0BCF1010F48
:100440001CD0BCF1020F31D11DE0BCF1110F17D04F
:10045000BCF1120F2AD119E0B8F5881F19D006DCBB
:10046000B8F5803F15D0B8F5801F1FD111E0B8F561
:10047000001F0ED0B8F5041F18D10AE0CB6815E0B4
:10048000CB681B1D12E0CB6808330FE0CB680C3340
:100490000CE08B682BB1012B4FF0080303D04561B2
:1004A00004E0042302E0056100E00023FF2A01D8F4
:1004B000064601E000F104064FEA840501D9A5F1E2
:1004C0002005D6F8008007FA05FC28EA0C0803FA94
:1004D00005F548EA0508C6F800804D68ED0062D5CC
:1004E000374DAE6946F00106AE61AD6924F00306F2
:1004F00005F001050095334D06EB050CDCF80850BE
:10050000A607360F07FA06F825EA0805DFF8B880CF
:10051000404503D14FF0000817E044E0DFF8AC801D
:10052000404502D14FF001080FE0DFF8A4804045BC
:1005300002D14FF0020808E0DFF89880404502D170
:100540004FF0030801E04FF0040808FA06F848EA03
:100550000508CCF808804D68D9F80060ED024D46DA
:1005600001D5164300E096432E604D68DAF800602E
:10057000AD02554601D5164300E096432E604D6806
:10058000DBF80060AD035D4601D5164300E09643FD
:100590002E604D68DEF80060ED03754601D5164308
:1005A00000E096432E60641C0D682A46E5407FF407
:1005B00031AFBDE8F88F00000804014000001110C1
:1005C000001002400000014000080140000C014002
:1005D00000100140001401408068084000D0012054
:1005E00070470AB1016170470904FBE70148806860
:1005F00070470000340200200248816802781144EC
:100600008160704734020020074810B5016841F04E
:1006100010010160032000F075F8012000F006F8D9
:1006200000F024F8002010BD0020024070B50D4DF0
:1006300004464FF47A712878B1FBF0F00A49096852
:10064000B1FBF0F000F0DCFA48B9102C07D2002220
:100650002146501E00F036F800206C6070BD01206D
:1006600070BD000034020020400200200C4808B594
:10067000816941F001018161816901F0010100910D
:10068000C16941F08051C161C06900F080500090A3
:100690000448416821F0E06141F00071416008BD0B
:1006A0000010024000000140002809DB00F01F029A
:1006B000012191404009800000F1E020C0F80011C4
:1006C00070470000F0B40E4B1B680C46C3F30223C6
:1006D000C3F10705042D00D90425191D072901D2EE
:1006E000002300E0DB1E012606FA05F1491E214029
:1006F00099409E40761E16403143F0BC01F029B966
:100700000CED00E0064900F0070208684FF6FF0311
:10071000184040EA0220034A104308607047000076
:100720000CED00E00000FA052DE9F0470F4605004A
:1007300061D0434E306800F00700B84209D23068FB
:1007400020F0070038433060306800F00700B842FE
:1007500051D128683B4C810712D5400703D560680A
:1007600040F4E06060602878000703D5606840F4DA
:10077000605060606068A96820F0F0000843606025
:100780002878C00728D06868012810D0216802287E
:1007900010D0890700292EDA616821F00301014396
:1007A0006160FFF723FF804641F288390DE0216840
:1007B0008903EFE78901EDE7FFF718FFA0EB0801D8
:1007C000494502D90320BDE8F0876068696800F0F8
:1007D0000C00B0EB810FEFD1306800F00700B84299
:1007E0000BD9306820F0070038433060306800F0E3
:1007F0000700B84201D00120E5E72878400705D579
:100800006068E96820F4E0600843606028780007C9
:1008100006D56068296920F4605040EAC100606034
:1008200000F038F86168084AC1F30311515CC84010
:100830000649086006480068FFF7F8FE0020C2E796
:1008400000200240001002405A32000840020020FE
:10085000380200200448054900684968044AC1F389
:100860000221515CC8407047400200200010024045
:100870006A3200080448054900684968044AC1F31F
:10088000C221515CC8407047400200200010024065
:100890006A3200080E4A51680E4801F00C03042B1E
:1008A00011D0082B0FD10C48C1F38343C903C05C9E
:1008B0000AD55168084AC1F34041921E515C054A6D
:1008C0005043B0FBF1F070470449484370470000C3
:1008D0000010024000127A004A32000800093D0070
:1008E0002DE9F84F040070D02078C04DC00749D0E2
:1008F0006868C0F38100012807D06868C0F38100F0
:10090000022809D16868C00306D52868800339D554
:1009100060680028E7D035E06068B0F5803F0BD014
:1009200010B1B0F5A02F11D0286820F480302860D5
:10093000286820F4802002E0286840F48030286095
:10094000606890B1FFF752FE06460AE0286840F45E
:1009500080202860F0E700BFFFF748FE801B642876
:1009600073D828688003F7D50CE0FFF73FFE0646F2
:1009700005E000BFFFF73AFE801B6428F0D8286826
:100980008003F7D420789A4E80074FF001094FF08A
:10099000000839D5686810F00C0F07D06868C0F3FC
:1009A0008100022809D16868C00306D4286880073E
:1009B00014D52069012808D110E02069B0B1C6F82B
:1009C0000090FFF713FE074605E00AE1FFF70EFE71
:1009D000C01B0228C4D828688007F7D52868616939
:1009E00020F0F80040EAC10028600DE0C6F8008061
:1009F000FFF7FCFD074604E0FFF7F8FDC01B0228E7
:100A000023D828688007F7D4207800072CD57948A8
:100A1000A169D9B1C0F80090FFF7E8FD074604E0EE
:100A2000FFF7E4FDC01B02280FD8686A8007F7D5DE
:100A300071484FF4FA510068B0FBF1F0009000BF2C
:100A40000098411E0091FAD20EE080E0C0F80080CC
:100A5000FFF7CCFD074604E0FFF7C8FDC01B0228E6
:100A600075D8686A8007F7D42078400760D5E869B0
:100A70000027C00008D4E86940F08050E861E869C8
:100A8000012700F0805000905C480168C90513D42C
:100A90000168834641F480710160FFF7A7FD82463B
:100AA00006E000BFFFF7A2FDA0EB0A0064284ED8C5
:100AB000DBF80000C005F5D5E06801280AD008B1D0
:100AC000052813D0286A20F001002862286A20F047
:100AD000040002E0286A40F001002862E06841F268
:100AE000883B98B1FFF782FD82460BE0286A40F010
:100AF00004002862EEE700BFFFF778FDA0EB0A01D3
:100B000059455AD8286A8007F6D50CE0FFF76EFDE4
:100B1000824605E0FFF76AFDA0EB0A0159454CD873
:100B2000286A8007F6D41FB1E86920F08050E86198
:100B3000E06988B36968C1F38101022944D00228C1
:100B4000C6F8608004D0FFF751FD044638E034E079
:100B5000FFF74CFD074604E0FFF748FDC01B0228E5
:100B60002BD828688001F7D4206AB0F5803F05D1E2
:100B70006868A16820F4003008436860D4E908017F
:100B80000843696821F4741108436860C6F86090EE
:100B9000FFF72CFD044606E025E000BFFFF726FD29
:100BA000001B022809D828688001F7D51BE000BF88
:100BB000FFF71CFD001B022802D90320BDE8F88FB7
:100BC00028688001F4D40EE00128F7D06868226A12
:100BD00000F48031914204D1616A00F470108842BF
:100BE00001D00120EAE70020E8E700000010024001
:100BF0000000424280044242400200200070004057
:100C000010B5401EB0F1807F01D3012010BD4FF020
:100C1000E02460610F21601700F09BFE0020A061BE
:100C200007202061002010BD10B590F83C20012A5B
:100C300022D0012280F83C20CA688C6822F44072DD
:100C400022434C6822F4806222430C6822F4006242
:100C500022430C6922F4805222434C6922F4005250
:100C60002243C969002322F480420A4301684A648E
:100C700080F83C30002010BD022010BD70B590F807
:100C80003C20012A26D0012480F83C40022280F832
:100C90003D2003685A689D6822F070060A68324356
:100CA0005A600D4B02689A4208D0B2F1804F05D0CD
:100CB0000A4B9A4202D00A4B9A4204D1496825F065
:100CC00080031943916080F83D40002180F83C107A
:100CD000084670BD022070BD002C01400004004099
:100CE0000008004000B585B00021009101910291FB
:100CF000039100680B49884212D10B48816941F089
:100D0000040181618069694600F0040004904FF499
:100D1000706000900220019003900448FFF76CFB84
:100D200005B000BD002C0140001002400008014049
:100D300070B5044690F83C0000260D4601280FD0FF
:100D4000012084F83C006AB1042A1DD0082A2FD063
:100D50000C2A3FD00126002084F83C00304670BDAC
:100D6000022070BD206800F02FFC2068816941F0EE
:100D7000080181612068816921F004018161206896
:100D800081692A69114311E0206800F045FC206860
:100D9000816941F4006181612068816921F4806189
:100DA0008161206881692A6941EA02218161D2E773
:100DB000206800F05DFC2068C16941F00801C16154
:100DC0002068C16921F00401C1612068C1692A69F4
:100DD000114311E0206800F077FC2068C16941F4FC
:100DE0000061C1612068C16921F48061C16120682E
:100DF000C1692A6941EA0221C161ACE710B504006A
:100E000003D094F83D0010B107E0012010BD002090
:100E100084F83C00204600F01FF8022084F83D00D2
:100E2000211D206800F086FB012084F8460084F82C
:100E30003E0084F83F0084F8400084F8410084F8C4
:100E4000420084F8430084F8440084F8450084F8A4
:100E50003D00002010BD000008B50068064988422A
:100E600008D10648816941F400618161806900F41C
:100E70000060009008BD0000002C014000100240FE
:100E800010B50446022249B104290ED0082913D016
:100E900094F84100012816D0012010BD94F83E00BE
:100EA0000128F9D184F83E200FE094F83F00012892
:100EB000F2D184F83F2008E094F840000128EBD1FB
:100EC00084F8402001E084F841200122206800F0ED
:100ED0006DFB0F492068884203D1426C42F4004206
:100EE00042642068884208D0B0F1804F05D009499B
:100EF000884202D00849884204D1816801F0070184
:100F0000062903D0016841F001010160002010BDF5
:100F1000002C01400004004000080040704770476A
:100F2000F8B5016804460868CA684B6910F00F0FED
:100F30004FF0000559D003F0010602F490773743D3
:100F400065D0C10705D0D10503D5616C41F0010121
:100F50006164410705D5D90703D0616C41F00201F6
:100F60006164810705D5D90703D0616C41F00401A4
:100F70006164010707D502F02001314303D0616CA1
:100F800041F008016164616C00293AD0800604D503
:100F9000900602D5204600F0E8FB20684069616CAD
:100FA000C0F38010090700D460B3204600F0B6FB00
:100FB00020684069400621D52068143050E8001FA1
:100FC00021F0400140E80012002AF5D1E06BA8B101
:100FD0006D494163E06BFFF7B1F9002811D0E06B78
:100FE000416B01B0BDE8F040084783060FD593067A
:100FF0000DD52046BDE8F84000F0B7BB2046FFF70E
:101000008EFFF8BD2046FFF78AFF6564F8BD266BAA
:101010002023012E7CD1C6067AD5D60678D508685D
:101020004868009048694FF00206400640D5E16BE1
:10103000086840680004000CE8D0A28D8242E5D91F
:10104000E085886920282DD020680C3050E8001FEA
:1010500021F4807140E80012002AF5D12068143094
:1010600050E8001F21F0010140E80012002AF5D1EC
:101070002068143050E8001F21F0400140E80012C1
:10108000002AF5D184F84230256320680C3050E8FE
:10109000001F21F0100140E80012002AF5D1E06B9A
:1010A000FFF729F96663A08DE18D401A81B22AE02D
:1010B000A08DE18D401A81B2E08D0028A6D00029D4
:1010C000A4D022680C3252E8000F20F4907042E85D
:1010D0000007002FF5D12068143050E8002F22F0CF
:1010E000010240E80027002FF5D184F84230256343
:1010F00020680C3050E8002F22F0100240E8002356
:10110000002BF5D166632046FFF708FFF8BDFFE727
:1011100005062BD5150629D594F841002128F5D1CF
:10112000A068B0F5805F01D12069B0B1206A411C90
:101130002162216800784860E08C401E0004000CA9
:10114000E084E3D12068C16821F08001C16020689B
:10115000C16841F04001C160D8E7206A0088C0F34F
:1011600008004860206A801C2062E5E74006CDD573
:101170005006CBD5CA68204622F04002CA6084F8E7
:10118000413000F0CFF8C1E70D17000870B504003A
:1011900004D094F84100002510B106E0012070BD94
:1011A00084F84050204600F023F8242084F84100C1
:1011B0002068C16821F40051C160204600F036FB70
:1011C0002068016921F4904101612068416921F0A2
:1011D0002A0141612068C16841F40051C160656421
:1011E000202084F8410084F842006563002070BD2F
:1011F00030B585B0002400940194029403940068F3
:101200001B49884232D11B48816941F48041816188
:10121000816901F480410491816941F00801816193
:101220008069154D00F008000490402000900220D5
:1012300001900320039069462846FFF7DDF88020DF
:10124000CDE90004694628460294FFF7D5F80B481B
:10125000416841F0E06141F0040141600022022157
:101260002520FFF72FFA2520FFF71EFA05B030BD25
:101270000038014000100240000C01400000014015
:1012800090F84230202B01D00220704721B11AB1D2
:101290000023036300F026BB01207047F0B41E4911
:1012A000884236D11D480025014682780B691431E9
:1012B0001C465B1CAA2A07D0561E7F2E01D20A5557
:1012C0000361BB2A03D014E00A55036111E00561F4
:1012D000134CC3684E7804F8236004EB83048E78C3
:1012E0006670CE78A6700E79E6700D608D805B1CFE
:1012F000C360C168042900D1C560CC2A02D1074867
:1013000008300270F0BC05490122891C0248FFF731
:10131000B7BFF0BC70470000C002002000000020F2
:10132000440200207047FEE770B586B000242048D4
:101330000094019402940394816941F01001816149
:10134000816901F010010491816941F020018161FE
:10135000816901F020010491816941F004018161FA
:10136000816901F004010491816941F00801816102
:101370008069104E00F008004FF4005504900022E0
:1013800029463046FFF72DF90220CDE902400095AD
:101390000125694601953046FFF72EF8CDE9005446
:1013A000694605480294FFF727F806B070BD0000B3
:1013B00000100240001001400008014010B592B03A
:1013C00000240F941C2168461094FEF71DFF202175
:1013D00007A8FEF719FF2D482B49016040F2CF21E5
:1013E000C0E901144FF4FA61C0E903144461846157
:1013F000FFF704FD08B1FEF77CFF0F940FA9234807
:101400001094FFF73BFC08B1FEF773FF6020CDE9B5
:1014100000040294039404940594002269461B4836
:101420000694FFF785FC08B1FEF763FF04226946C6
:101430001648FFF77DFC08B1FEF75BFF08226946FE
:101440001248FFF775FC08B1FEF753FF0C226946FE
:101450000E48FFF76DFC08B1FEF74BFF07940894A8
:1014600009944FF400500A94CDE90B4007A90748AE
:101470000E94FFF7D9FB08B1FEF73BFF0348FFF7D7
:1014800031FC12B010BD0000002C01407802002099
:101490000C4810B50A4901604FF416514160002113
:1014A00081600C22C160C0E904128161C161FFF753
:1014B0006DFE002803D0BDE81040FEF71ABF10BD36
:1014C00000380140C0020020FEE7FEE77047704789
:1014D000FFF792B830B58FB028216846FEF794FE2A
:1014E00014210AA8FEF790FE01210804CDE900109E
:1014F0000024029402250491CDE907504FF4E01036
:1015000009906846FFF7ECF908B172B6FEE70F20C4
:10151000CDE90A054FF48060CDE90C4002210AA80C
:101520000E94FFF701F9002801D072B6FEE70FB064
:1015300030BD7047F0B50268194B1A4C1A4D4FF088
:101540008047984205D0B84203D0A04201D0A842BB
:1015500003D122F070064A683243984205D0B8425F
:1015600003D0A04201D0A84203D122F44074CA683B
:1015700022434C6922F08002224302608A68C262E0
:101580000A688262984201D10969016301214161BF
:101590000169C90703D0016921F001010161F0BDB2
:1015A000002C0140000400400008004010B501F08C
:1015B0001F030121046A99408C430462016A9A4026
:1015C0001143016210BD000030B5036A026A22F0C7
:1015D000010202624268846924F073050C682C439E
:1015E00023F002058B682B430A4DA8420BD123F050
:1015F0000805CB6822F440722B434D6923F00403A5
:1016000015438A692A4342608461496841630362E1
:1016100030BD0000002C014030B5026A036A23F09F
:1016200010030362436884690D6824F4E64444EAC5
:1016300005248D6822F0200242EA05120B4DA842D3
:101640000ED1CD6822F0800242EA05124D6923F4E2
:10165000406343EA85038D6922F0400243EA850333
:101660004360846149688163026230BD002C01409F
:1016700030B5036A026A22F4807202624268C46969
:1016800023F4007324F073050C682C438D6843EA3F
:1016900005230C4DA8420ED1CD6823F4006343EA24
:1016A00005234D6922F4405242EA05128D6923F464
:1016B000806342EA05124260C4614968C163036203
:1016C00030BD0000002C014030B5046A026A22F4EB
:1016D000805202624268C3690D6823F4E64343EA1C
:1016E00005238D6824F4005444EA0534064DA842CD
:1016F00004D14D6922F4804242EA85124260C361FE
:1017000049680164046230BD002C014010B5406A94
:101710000021C185C184FFF702FC10BD01680C31B6
:1017200051E8002F22F4907241E80023002BF5D1FC
:101730000168143151E8002F22F0010241E8002332
:10174000002BF5D1016B012909D101680C3151E859
:10175000002F22F0100241E80023002BF5D12021B8
:1017600080F8421000210163704708B590F84210DC
:10177000222901D0022008BD82684FF480539A428A
:1017800001D1016921B1816A9A421BD04AB10AE0B4
:101790000268816A5268C2F308020A80816A891C61
:1017A00008E0026972B10268526802F07F020A70B2
:1017B000816A491C8162C18D491E0904090CC185D9
:1017C00003D01BE002685268F1E70168CA6822F0A2
:1017D0002002CA600168CA6822F48072CA60016887
:1017E0004A6922F001024A61202180F8421000215A
:1017F0004163026B012A03D0FFF750FD002008BDB2
:10180000016301680C3151E8002F22F0100241E819
:101810000023002BF5D101680A68D20602D50A68B8
:1018200049680091818DFFF779FBE7E770B50446C1
:1018300000680169E26821F44051114301612169A6
:10184000A0680843616908432168CA6841F20C63D3
:101850009A430243CA6020684169A26921F4407139
:10186000114341611E492068884202D1FFF702F806
:1018700001E0FEF7EFFF00EBC00101EB0012606832
:1018800064218000B2FBF0F3B3FBF1F36FF01806B4
:101890007343B2FBF0F5B2FBF0F605EB83053223A0
:1018A00003EB0515B5FBF1F5B6FBF1F605F0F00518
:1018B00005EB0615B2FBF0F6B2FBF0F0B0FBF1F071
:1018C0006FF01802504306EB800003EB0010B0FBF2
:1018D000F1F0216800F00F002844886070BD00001E
:1018E0000038014081628285C28500214164222145
:1018F00080F84210016921B10168CA6842F480721F
:10190000CA6001684A6942F001024A610068C16820
:1019100041F02001C1600020704700000148FFF73E
:10192000FFBA0000C0020020FEE7490050EAC120D3
:1019300018BF04204A0D18BF40F0010040F2FF72AA
:10194000B2EB515F08BF40F00200012808BF05203C
:1019500070470907090E002804DB00F1E02080F839
:101960000014704700F00F0000F1E02080F8141D13
:1019700070472DE9F0414F1E00EBC7010446D1E945
:10198000000115461E4637F006020DD02A463346A2
:1019900001F0D2F87F1E04EBC703D3E9002300F067
:1019A0000FFE37F00602F1D1022F25D0042F13D0FD
:1019B000062F18BFBDE8F0812A46334601F0BCF877
:1019C000D4E90A2300F0FCFD2A46334601F0B4F8BE
:1019D000D4E9082300F0F4FD2A46334601F0ACF8C0
:1019E000D4E9062300F0ECFD2A46334601F0A4F8C2
:1019F000D4E9042300F0E4FD2A46334601F09CF8C4
:101A0000D4E9022300F0DCFD2A46334601F094F8C5
:101A1000D4E90023BDE8F04100F0D2BD012201F07D
:101A2000CDBB00F0CDBD002213461046114600F09C
:101A300083BE0000024A0020110701F0BFBB000076
:101A400001FDFFFF2DE9F04D0546DFF8388221F05A
:101A500000408D4F82B00C46404520DBA0EB0801D2
:101A600029430BD08949884201DC10D17DB102B0F5
:101A700028462146BDE8F04DFFF7D0BF002CC7BF78
:101A8000002001468248394602B0BDE8F08D0120B1
:101A9000FEF7E9FB02B0BDE8F04DFFF7C4BF7D499A
:101AA000884244DA7C498142A1BF79487B4902B02F
:101AB000BDE8F08D2A4623461046194601F03CF851
:101AC0008346024676480E460B4606217844FFF7C9
:101AD00050FF5A46334601F02FF8074671488A46B0
:101AE0005A46334604217844FFF743FF5A463346AB
:101AF00001F022F80022434600F062FD02460B4648
:101B00003846514600F018FE2A46234601F014F8E4
:101B1000654A664B01F044F92A46234601F040F934
:101B200002B05B4ABDE8F04D5C4B01F039B9002CC6
:101B30004FF000024BDA464643462846214600F065
:101B40003FFD4FF0FF3201F039FB04460246584892
:101B50000D460B4606217844FFF70BFF22462B4625
:101B600000F0EAFF804653488A4622462B4604216D
:101B70007844FFF7FEFE22462B4600F0DDFF0022F0
:101B8000334600F01DFD06468B462046294600F0F0
:101B9000F1FC04460D4632465B464046514600F095
:101BA000CBFD22462B4600F0C7FF3F4A3F4B01F0DA
:101BB000E9F922462B4600F003FD012201F0FEFA6E
:101BC00002B03B46BDE8F04D314A01F0E9B82D4B7B
:101BD0002846214601F0E4F84FF0FF3201F0EEFA1A
:101BE00005460E4600F0C6FC00270C4680463A46E5
:101BF0000B4600F0E5FC82468B463A4623461046EB
:101C0000194600F099FF2A46334601F0C9F85246BA
:101C10005B4600F091FD824627488B462A463346B4
:101C200006217844FFF7A5FE2A46334600F084FFDC
:101C3000CDE9000121482A46334604217844FFF7C4
:101C400098FE2A46334600F077FF00220D4B00F045
:101C5000B7FC02460B46DDE9000100F06DFD42468F
:101C6000234600F069FF52465B4600F0A9FC3A4665
:101C7000234600F0A5FC02B00122BDE8F04D01F0C2
:101C80009DBA00000000F03FFB2109400000F07FFA
:101C9000182D44540000E03F0000603CFB21F93F58
:101CA000A8170000BE170000075C143326A6913C5D
:101CB0001E170000341700005216000068160000BE
:101CC0002DE9F84F04460D4621F00040009173497C
:101CD000814211DC7249884201DC06D12CB12046D8
:101CE0002946BDE8F84FFFF799BE6E48002DCCBFDE
:101CF0006D496E49BDE8F88F6D49814211DD6D492E
:101D00008142D8BF4FF0FF366DDD20462946FFF7F0
:101D10000CFE042808BFFFF78DFE20462946BDE8CB
:101D2000F88F6549654F25F00045814233DD6449F0
:101D3000814219DD002632464FF080432046294675
:101D400000F03EFC80468A4601222046294601F0EA
:101D500035FA00223B4601F015F94246534600F0A1
:101D6000EBFC04460D463EE001260022BA463B4607
:101D70002046294600F024FC80460F4600225346A8
:101D80002046294601F0FEF842463B4600F0D4FCCE
:101D900004460D4627E04B4981421BDDDFF828A1B0
:101DA0000226002253462046294600F0C5FE0022A6
:101DB0003B4600F005FC80460F4600225346204675
:101DC000294601F0DFF842463B4600F0B5FC0446E8
:101DD0000D4608E0032622462B4600203B4900F032
:101DE000ABFC04460D4622462B461046194600F031
:101DF000A3FE8B46824602460B4600F09DFE074638
:101E00000246334888460B4606217844FFF7B1FD69
:101E100052465B4600F090FE82462E488B463A467C
:101E2000434605217844FFF7A4FD3A46434600F0B7
:101E300083FE02460B46002E504659460CDA00F04F
:101E4000BFFB22462B4600F077FE01B022462B4610
:101E5000BDE8F04F00F0A4BF00F0B2FB22462B46D5
:101E600000F06AFE1C4A7A4402EBC603D3E9002361
:101E700001F088F822462B4601F084F8174A7A448C
:101E800002EBC603D3E9002300F08AFF009A002A80
:101E9000B8BF81F00041BDE8F88F00000000104499
:101EA0000000F07F182D4454FB21F93FFB21F9BFBE
:101EB0000000DC3F0000203E0000F33F0000F03F48
:101EC0000000E63F008003400000F83F0000F0BF44
:101ED00022150000E01400007E14000046140000EB
:101EE0002DE9F04D9446CCF1000423F000464CEA75
:101EF0000404594F46EAD4749A46884621F00042B9
:101F0000BC4206D8454240EA050442EAD474BC42C9
:101F100004D9BDE8F04D6246FFF783BDAAF14055F4
:101F2000A5F17F6555EA0C040BD0022404EAAA74DB
:101F30004A4DDFF82CE144EAD87452EA000B04D091
:101F40000CE0BDE8F04DFFF7BBBE002C14BF012C28
:101F5000BDE8F08D022C30D0032C32D056EA0C0BA9
:101F60000AD0BE4220D1BA4209D126F0804622F0E2
:101F700080423346114617E000291ADB25E0DFF8DE
:101F8000E4B0FB44002C04BFDBE90001BDE8F08DA8
:101F9000012C02BFDBE9000181F00041BDE8F08DBA
:101FA000022C0AD0032C0CD0BA4212D1B8F1000F87
:101FB0000BDA2A482C49BDE8F08D28462B49BDE8AC
:101FC000F08D28467146BDE8F08D24482849BDE8CB
:101FD000F08D921B12153C2AC4BF204F244E10DCFA
:101FE000BAF1000FBEBF12F13C0F00273E4608DBDE
:101FF000624600F0A1FB21F00041FFF761FE0746B9
:102000000E4694B1012C08BF86F000460DD0194A47
:10201000194B022C3846314615D000F0B3FF2A4642
:10202000BDE8F04D114B00F0ADBF0022134638461D
:10203000314600F0D9FC04BF0220FEF714F93846FF
:102040003146BDE8F08D00F09DFF2A46BDE8F04D19
:10205000064B00F0A5BE00000000F07F182D445490
:10206000FB2109C0DA130000FB21F9BFFB21094065
:10207000FB21F93F075C143326A6A13C30B5194972
:10208000002200BF51F82230834207D101EB8204C5
:102090006568854202D1A46884421ED0834207D17C
:1020A00001EB8203DC68844202D19B69834214D035
:1020B000521C032AE6DB0B4A0B681269834204D1E7
:1020C000824202D10B6A834207D08B68834206D1D9
:1020D000824204D18969814201D1012030BD0020B2
:1020E00030BD0000540200202DE9F84F8A46401E02
:1020F00000EB40017B484AB1012A02D0022A15D1E7
:1021000001E0794A04E0784A783A01E0754A6032A1
:1021100002EBC101D1E90023C0E90823D1E9022380
:10212000C0E90A23D1E90421C0E90C210446834611
:10213000D4E90A01D4E90823FFF7D2FEC4E90E016D
:10214000D4E90A231046194600F0F6FCD4E9082326
:1021500006460D461046194600F0EEFC32462B4668
:1021600000F02EFA00F006FA80468946D4E90C0108
:1021700000225E4B00F006FF06460F4602460B4665
:1021800000F0DAFC04460D4642464B46104619461E
:1021900000F0D2FC22462B4600F012FA00F0EAF9D9
:1021A00004460D460022524B00F0C4FD06D32246E1
:1021B0002B4600204F4900F0BDFD03D24FF0FF3108
:1021C000CAF8001042464B4630463946FFF788FEB3
:1021D000804689460022484B2046294600F0ACFC48
:1021E00006460F4622462B461046194600F0A4FC30
:1021F00005460022414B009100F0E2F90022404BDD
:1022000000F0C0FE32463B4600F096FAFFF71AFC9B
:1022100042464B4600F0D4F95C460022C4E9100166
:102220002846384B009900F0BBFD0022364B00F0E9
:1022300083FAFFF707FC354DDFF8D4B02A465B463A
:1022400000F0AEFDC4E91201D4E90E012A465B4656
:1022500000F072FA00222F4B00F06EFADFF8B8900F
:102260002E4E4A46334600F067FC2D4F4A463B4609
:1022700000F0A6F9DFF8AC800022434600F05CFCD9
:1022800000F0EEFBCAF80000D4E910012A465B46D4
:1022900000F052FA4A46334600F04EFC4A463B46AE
:1022A00000F08EF90022434600F046FC00F0D8FB17
:1022B000CAF80400D4E912012A465B4600F03CFA51
:1022C0004A46334600F038FC4A463B4600F078F96F
:1022D0000022434600F030FC00F0C2FBCAF80800C0
:1022E000BDE8F88F00000020B001002000405540FC
:1022F00000F0764000A0604000406D4080BCCA40C5
:102300008084EE40D099F2408090EC406E861BF0C5
:10231000F92109400000F83F9A9999999999B93F94
:102320009999993F00409F40DFF8D0A14FF40059A0
:10233000002249465046FEF754F9FEF765F9FFF7CB
:10234000C9F8FEF7F1FFFFF739F8FFF7A1F8002110
:102350006B48FEF795FD04216948FEF791FD0821C1
:102360006748FEF78DFD0C216548FEF789FD65483D
:1023700000F0D0F8634901224E396348FEF780FF30
:10238000604C624E624D4FF00108503C01213046D6
:10239000FEF722F9012805D001213046FEF71CF98D
:1023A000A0B339E0012249465046FEF71AF923E06E
:1023B0004A785449FFF798FE4FF47A773846FEF78B
:1023C00009F8504800F0A6F83846FEF703F894F9EB
:1023D0000500002205EB80004A49C078FFF784FE23
:1023E0003846FDF7F7FF474800F094F83846FDF708
:1023F000F1FF6079401C607194F9052005EB8201C2
:10240000887848B1E3689A42D2DB05E0FFE7002212
:1024100049465046FEF7E5F894F90000411C21D0EA
:10242000C0F10101E17001281CD12079D0B9E06828
:10243000C0B105EB8000334942788078FFF754FE45
:10244000304800F067F8E068002205EB80002D4975
:10245000C078FFF749FE2B4800F05CF884F8018053
:1024600084F8048094F9010094F90010884222D184
:10247000E068244905EB800042788078FFF734FE5D
:10248000204800F047F8E068002205EB80001D4975
:10249000C078FFF729FE1B4800F03CF8E078607038
:1024A00094F90000FFF7EAFD207900287FF46EAF71
:1024B00084F804806AE794F903108842FAD1E0684E
:1024C000104F05EB80004A3F427897F900000D4914
:1024D000FFF70AFE0B4800F01DF897F901000022F3
:1024E0000849FFF701FE074800F014F80020387093
:1024F000787094F90300FFF7C1FD47E70010014031
:102500007802002050000020C00200200008014096
:102510004402002070B5154C0546006821684863E8
:102520004FF4FA763046FDF755FF216868688863F6
:102530003046FDF74FFF2168A868C863B000FDF77B
:1025400049FF0B4D2168686888633046FDF742FFFC
:102550002168286848633046FDF73CFF2168A86879
:10256000C8633046BDE87040FDF734BF78020020F4
:10257000280200202DE9F04106460F4600F01CFC21
:10258000041E0D4618BF0120284320F00040C0F172
:102590007F6000F1E040C00F0ED0301C18BF01205A
:1025A000384320F00040C0F17F6000F1E040C00FF0
:1025B00004BF0120FDF757FE20462946BDE8F08103
:1025C00010B591EA030F48BF83F0004300F1E284A5
:1025D000841A71EB030C05D2121943EB0C03001B98
:1025E00061EB0C01DFF824E14FEA1154A4EB135C1A
:1025F0001EEA430F18BF9EEA445F73D023EA0E031E
:10260000DCF1200E21EA045143F4801332D322FA84
:102610000CFE10EB0E0023FA0CFE41EB0E01CCF188
:10262000200E03FA0EFE10EB0E0051F10001B1F581
:10263000801FCCF1200E32D201EB045112FA0EF2BF
:10264000BDE8104058BF7047401C38BF5FEA4202E7
:1026500018BF7047002814BF20F0010041F10001AD
:102660004FEA410313F5001F38BF7047A1F1C04185
:1026700000F05ABB012A43EB0302ACF1200CDCF161
:102680001F0E32BF4FF0000E23FA0CF310EB0300C5
:1026900041EB0451B4EB115FD0D0A1EB045101F533
:1026A000801149085FEA300001EB04510ED350F16C
:1026B000000038BF12FA0EFE08D1BDE81040C9E78D
:1026C000401C38BF5FEA4202CAD1C3E7BDE81040F0
:1026D0004FEA410313F5001F38BF7047A1F1C04115
:1026E00000F022BB9EEA445F08D011EA5E0FBDE80D
:1026F000104004BF01F0004100207047BDE81040C9
:1027000070B500F0C3FA00BF64FBBE3E0000E0FFFE
:1027100002494FF0000000F01FBD00BF0000F87F2D
:10272000491058BFC1F140415B1058BFC3F140434D
:102730008B42EFF3008070472DE9C04130B4DFF8E1
:10274000A0C23CEA111418BF3CEA131400F0EC805C
:1027500081EA03051CEA111444EAD57418BF1CEA87
:10276000131500F0C780A4EB05044FF0004545EABF
:10277000C12145EAC32341EA505143EA525304F1CF
:102780007F74994204F500344FEAC0204FEAC22218
:1027900008BF904200F09C804FEA13650FF240168C
:1027A000765D4FEA134506FB05F7C7F1807706FB18
:1027B00007F74FEAD737A7FB03687642C8F580389A
:1027C000A7FB06CE38BFA8F1010807FB08E64FF0CB
:1027D000000EA6FB028CE6FB03CEDCF1000CCEF172
:1027E000004E38BFAEF1010EA6FB0C584FF00007AB
:1027F0004FF00005E6FB0E87A1FB08C6A0FB07CE45
:1028000016EB0E0645F10005E1FB076515F1E04EFC
:102810007EBFA4F580345FEA46066D4116F180075D
:1028200045F100054FEA17274FEA066647EA0567B4
:10283000A6F1DE46B6F1805F4FEA15251FD938466E
:1028400024F0010C05EBC471BCF1FE6F01EB0C111F
:1028500002D8F0BCBDE8008124425CBF01F5801EB7
:102860009EEAC47F02D4F0BCBDE80081244238D483
:10287000F0BCA1F1C041BDE8004100F055BA4FEAFB
:10288000D22242EA43524FEAD323A7FB02864FEA01
:10289000D02040EA415007FB03661EEA0E0F4FEAC4
:1028A000D12105FB026658BFA6EB0056B6EB0056D9
:1028B0004FEA520E4EEAC37E18EB0E0E56EB530E45
:1028C000BDD518EB02085E417F1C55F10005B6E747
:1028D0004FF480154FF000074FF000064FF000084E
:1028E000ADE7F0BC4FF0000001F1C04101F0004144
:1028F000BDE8008111EA0C1F0CEA131500D00CE0B2
:1029000013EA0C1F00F025804FF00000F0BC81EAB4
:10291000030101F00041BDE80081F0BCBDE80041C9
:1029200081EA030100F000BAF0BCBDE8004170B5D7
:1029300000F0ACF9097EFC3E00F007B881EA030123
:102940004FF0000001F00041704781EA030100F000
:10295000EBB9F0BCBDE800414FF0000021497047E1
:10296000FFFDFBF9F7F5F4F2F0EEEDEBE9E8E6E454
:10297000E3E1E0DEDDDBDAD8D7D5D4D3D1D0CFCDDB
:10298000CCCBCAC8C7C6C5C4C2C1C0BFBEBDBCBB14
:10299000BAB9B8B7B6B5B4B3B2B1B0AFAEADACAB0F
:1029A000AAA9A8A8A7A6A5A4A3A3A2A1A09F9F9EE9
:1029B0009D9C9C9B9A99999897979695959493939B
:1029C000929191908F8F8E8E8D8C8C8B8B8A898932
:1029D00088888787868585848483838282818180B5
:1029E0000000FF070000F87F51EA030C17D41CF524
:1029F000801F58BFBCF5801F00F10680994218BFA8
:102A0000704708BF9042704707D711F5801F58BF25
:102A100013F5801F19D499427047894270471CF5FD
:102A2000801F08D5BCF5801FF7D58B4218BF7047B3
:102A300008BF824270474FF4001C1CEB410F38BFA7
:102A40001CEB430F01D28B42704770B500F01EF9AA
:102A5000922449004FF000514FF08053FFF760BEC1
:102A60004FEA41034FEA5353A3F58063D3F11E03AA
:102A7000C8BFD3F1210C0CDD4FF0004242EAC12265
:102A800042EA505232FA03FC8CEAE17CACEBE17092
:102A90007047102BC4BF0020704703F5787CBCF151
:102AA000FF3F04D06FF0004282EA2100704770B50A
:102AB00000F0ECF84992248000207047F2E7000013
:102AC00051EA030C17D41CF5801F58BFBCF5801FBA
:102AD00000F10680994218BF704708BF90427047C6
:102AE00007D711F5801F58BF13F5801F19D49942DD
:102AF0007047894270471CF5801F08D5BCF5801FC0
:102B0000F7D58B4218BF704708BF824270474FF419
:102B1000001C1CEB410F38BF1CEB430F01D28B4252
:102B2000704770B500F0B2F8922449004FF00051A0
:102B30004FF08053FFF7F4BDDFF848C170B51CEAD1
:102B4000111E1EBF1CEA13159EEA0C0F95EA0C0F0E
:102B500000F06F8081EA030423EA4C134EEAD47E2E
:102B600021EA4C1141F4801143F48013AE44A1FBDF
:102B7000024CA0FB0365AEF17F7E361955EB0C05C8
:102B8000A1FB034C4CF10003A0FB021C16EB0C064E
:102B9000654153F10003094218BF46F0010613F4E2
:102BA000007F0BD14FEA03314FEA0530340341EA8D
:102BB000155140EA16506FF003020AE04FEAC321B4
:102BC0004FEAC520F40241EA555140EA56506FF0F1
:102BD000020202EB2E4201EB025585EACE710AD0C9
:102BE0005FEA440C18BF24F0004450F1000041F1AA
:102BF000000120EAD47040F2FE7C624500D270BD34
:102C0000A84214BF4FF080444FF04044002E08BF4C
:102C10000024BEF1806FA8BFA1F1C041BDE87040A3
:102C200080F282804FF0000001F1C04101F00041CC
:102C300070479EEA0C0F0CEA131518BF95EA0C0FAB
:102C400006D04FF0000081EA030E0EF0004170BD87
:102C500000F01CF88900013E00F007B800F009B848
:102C60004FEA430C5FEA5C5C08D081EA030100F0A4
:102C70005BB84FEA410C5FEA5C5CF6D14FF00000B4
:102C8000014970470000FF070000F87F0EF1020EB7
:102C90002EF0030E5EF8046B364205D4012A43EB96
:102CA000030515F5001F12D8012841EB010C1CF596
:102CB000001F0CD80ED14FEAD17C15F5001F0CEB8C
:102CC0004C0C0CF1020C08BF4CEBD37C04E04FF031
:102CD000080C01E04FEAD37C0CEB4C0526FA05F614
:102CE00006F00706B6F1040C06D20EEB860CBDE822
:102CF00070404CF0010C6047DFE80CF0090B020259
:102D00004FF000414FF00000A1F5002170BD1946C1
:102D10001046012851EB010418BFD4F5001484BFFC
:102D2000002001F0004170BD0808A0F500114FEA35
:102D30003101704753EA010C17D41CF5801F58BFAE
:102D4000BCF5801F00F106808B4218BF704708BF9A
:102D50008242704707D713F5801F58BF11F5801FB7
:102D600019D48B4270479B4270471CF5801F08D5D1
:102D7000BCF5801FF7D5994218BF704708BF904235
:102D800070474FF4001C1CEB430F38BF1CEB410F86
:102D900001D2994270470FB40CBC03BCFFF7C1BE0F
:102DA00091EA030F10B581F000413FF511AC83F0BB
:102DB000004300F0EFB800002DE9F04101F5801C60
:102DC000BCF5001FC0F2C3804FEA115C21EA0C5130
:102DD0000CF1FD0C41F480115FEA5C0C0CF5C07C39
:102DE00001D3400049413DA4890241EA9051870244
:102DF0008E0E0A0CA45D04FB04F602FB06F6C6F177
:102E00004046A4FB0662F60D46EA422606FB06F49F
:102E1000A4FB01235242C3F1404338BF5B1EA6FB13
:102E200002420024E6FB0324D20B42EA4446A6FBFE
:102E30000623A1FB02E2A3FB07E4A4184FF0000263
:102E400052F10002E3FB01426442C2F1404E38BF3E
:102E5000AEF1010EA6FB04234FF00002E6FB0E329A
:102E6000A2FB03464FF00004B61954F10004E2FB44
:102E70000264A1FB06E6A4FB07E816EB08064FF088
:102E8000000858F10008E4FB01687642C8F1405898
:102E900038BFA8F10108A2FB06E4A3FB08E52D1941
:102EA0004FF0000454F10004E2FB0854A1FB05E6D6
:102EB000A7FB04E818EB06084FF0000656F10006E1
:102EC000E1FB048618F1200556F10006A809A8F1D7
:102ED0001B08B10908F03F08B8F10A0F40EA866004
:102EE0001CD901EB0C51BDE8F08100BFFCF5EEE808
:102EF000E2DDD8D3CFCBC7C3C0BDB9B6B4B1AEAC99
:102F0000A9A7A5A3A19F9D9B9A9896959392908F10
:102F10008D8C8B898887868584838281A0FB00685D
:102F200000FB01F208EB4208B8EB872807D53418FC
:102F300058EB0104D5D5401C51F10001D1E7341AFA
:102F400078EB0104CDD4401E71F10001C9E75FEABE
:102F50004C0C5FEA9C5C0DD105D34FF0000001F0F2
:102F60000041BDE8F081BDE8F04170B5FFF78EFE8D
:102F70006DDBFFBEBDE8F0414FF000000049704737
:102F80000000F87F10B591EA030F48BF83F00043BB
:102F90003FF51EAB841A71EB030C07D212198CF0AB
:102FA000004C43EB0C03001B61EB0C01DFF8A4E1C8
:102FB0004FEA1154A4EB135C1EEA430F18BF9EEABC
:102FC000445F00F0B08023EA6E03524221EA0451CC
:102FD000C3EB6E0338BF5B1EDCF1200E25D322FA53
:102FE0000CFE10EB0E0043FA0CFE41EB0E01CCF18F
:102FF000200E03FA0EFE10EB0E0051F10001CCF191
:10300000200E29D412FA0EF201EB0451BDE8104053
:1030100058BF7047401C1CBFB2F1004F70470028DA
:103020000CBF491C20F00100704712EB020E43EB6D
:10303000030218BF4FF0010E4EEA4202ACF1200C21
:10304000DCF11E0E54D943FA0CFE10EB0E0051F1C8
:10305000FF31CCF11E0ED5D50EF1010E12FA0EFE87
:10306000404141EB010101EB445C5FEA5C5C10D93B
:1030700010EBDE7001EB045138BFBEF1004FBDE82C
:10308000104018BF704700280CBF491C20F00100F9
:10309000704730D24FEAD42C11F5001124F40064AB
:1030A0001BD0B1FA81F20B3AA41AA41ED2F120036C
:1030B000914030FA03F31943904001EBCC71002C9E
:1030C00001EB0451BDE81040A8BF704701F1C041B9
:1030D0004FF0000001F000417047B0FA80F310FAA1
:1030E00003F100D110BDE41A173C4805C90AE4E712
:1030F00001EB045110BD491001EB0451BDE8104033
:103100004FEA300002E04FF0000170474A0008BF6C
:103110000042F8D0B2F5001F28BF704701F000410F
:103120004FF0000070479EEA445F07D011EA5E0F3F
:10313000BDE8104004BF002100207047BDE81040EA
:1031400070B5FFF7A3FD00BF40DFF63E83F00041FE
:10315000104670470000E0FF0CF00F03092B08BF7A
:10316000082000F059800A2B0BD0082B18BF70479D
:1031700008BF1CF0400F0AD04FF000004FF00001D4
:1031800070471CF0400F18BF4FF0004070471CF014
:10319000100F08D020F0704300F07F4242EAD301C4
:1031A0004FEA4370704700F0604021F07F4242EAEE
:1031B000000201F07F4040EA727070474FF0FF0C50
:1031C0004CF4E06C1CEA11531CBF9CEA030C9445C0
:1031D000C2BFDA4201EB02517047002B0DD0BCF1A7
:1031E000000F0FD0002A01F00041A4BF41F0E041E0
:1031F00041F07F614FF00000704701F000414FF057
:103200000000704750EA01334FF09B0C18BF4CF0A0
:10321000806C7FF47DAA70471CF4801F11D01CF4D1
:10322000E02F03D06FEACC31490070474FF0405097
:10323000EFF3008222F0704242EA000282F300883B
:1032400070474FF0000070470102020304050607B3
:1032500008090A0B0C0D0E0F1010000000000000F2
:103260000000010203040607080900000000010233
:103270000304000000000000555555555555C53F45
:103280007D6FEB0312D6D4BF5544880E55C1C93F9C
:103290003B8F68B52882A4BF88B20175E0EF493F33
:1032A00009F7FD0DE13D023F4B2D8A1C273A03C073
:1032B000C88A599CE52A004059018D1B6C06E6BF5F
:1032C00082922EB1C5B8B33F4FBB610567ACDD3FFD
:1032D000182D4454FB21E93F9BF681D20B73EF3F3D
:1032E000182D4454FB21F93FE2652F227F2B7A3CB5
:1032F000075C143326A6813CBDCBF07A8807703C6E
:10330000075C143326A6913CC4EB98999999C9BFE0
:10331000711623FEC671BCBF6D9A74AFF2B0B3BF15
:103320009AFDDE522DDEADBF2F6C6A2C44B4A2BFD5
:103330000D5555555555D53FFF8300922449C23F41
:103340006E204CC5CD45B73F513DD0A0660DB13F75
:10335000EB0D76244B7BA93F11DA22E33AAD903F87
:10336000000000000000000088330008000000207A
:10337000440200002801000808340008440200202C
:103380002407000084010008034EFF02326E5AB485
:1033900004A15344404B406A08115A49080A1524B5
:1033A000180B1434C01859485BE07010CA5948EA29
:1033B000A0185948F91859484BC07208CB805B488F
:1033C000F9185948F9185A5730DA676059080B1438
:1033D000806B18EA509059086960E918CBE07510C5
:1033E0005B405590D9786918DB606D884A5318E9BD
:1033F000786918E97869189978326E32B43278327F
:0834000001821013127A000092
:04000005080000ED02
:00000001FF
