:020000040800F2
:1000000088090020C9010008B7100008210F000866
:10001000B5100008EF02000863130008000000009C
:10002000000000000000000000000000BB100008FD
:10003000F102000800000000B9100008BD1000081F
:10004000E3010008E3010008E3010008E301000800
:10005000E3010008E3010008E3010008E3010008F0
:10006000E3010008E3010008E3010008E3010008E0
:10007000E3010008E3010008E3010008E3010008D0
:10008000E3010008E3010008E3010008E3010008C0
:10009000E3010008E3010008E3010008E3010008B0
:1000A000E3010008E3010008E3010008E3010008A0
:1000B000E3010008E3010008E3010008E301000890
:1000C000E3010008E3010008E3010008E301000880
:1000D000E3010008E3010008E3010008E301000870
:1000E000E3010008E3010008E301000800F002F862
:1000F00000F05AF80AA090E8000C82448344AAF168
:100100000107DA4501D100F04FF8AFF2090EBAE865
:100110000F0013F0010F18BFFB1A43F0010318473B
:10012000682A0000882A00000A444FF0000C10F8EA
:10013000013B13F0070408BF10F8014B1D1108BF65
:1001400010F8015B641E05D010F8016B641E01F805
:10015000016BF9D113F0080F1EBF10F8014BAD1C55
:100160000C1B09D16D1E58BF01F801CBFAD505E073
:1001700014F8016B01F8016B6D1EF9D59142D6D3CD
:10018000704700000023002400250026103A28BFF5
:1001900078C1FBD8520728BF30C148BF0B607047F9
:1001A0001FB51FBD10B510BD00F06CF81146FFF76C
:1001B000F7FF01F07FFD00F08AF803B4FFF7F2FFCC
:1001C00003BC00F08DF8000009488047094800474B
:1001D000FEE7FEE7FEE7FEE7FEE7FEE7FEE7FEE7F7
:1001E000FEE7FEE704480549054A064B7047000054
:1001F0001F110008ED000008880300208809002076
:1002000088050020880500204FF0000200B5134645
:1002100094469646203922BFA0E80C50A0E80C5026
:10022000B1F12001BFF4F7AF090728BFA0E80C50D7
:1002300048BF0CC05DF804EB890028BF40F8042BD0
:1002400008BF704748BF20F8022B11F0804F18BF3D
:1002500000F8012B704770477047704710B500F0E9
:1002600009F8006810BD10B5044600F003F80460FA
:1002700010BD00000048704724030020004870476C
:10028000240300207546FFF7F9FFAE4605006946D6
:10029000534620F00700854618B020B5FFF7A2FFAF
:1002A000BDE820404FF000064FF000074FF0000877
:1002B0004FF0000B21F00701AC46ACE8C009ACE8F8
:1002C000C009ACE8C009ACE8C0098D46704710B55C
:1002D0000446AFF300802046BDE81040FFF76DBF35
:1002E00001491820ABBEFEE7260002007047FEE77A
:1002F000704772B6FEE7000070B5044600F0FEF8E5
:100300000546601C02D004480078044400F0F6F86A
:10031000401BA042FAD370BD780200202DE9F84FAF
:10032000DFF8B8910024A9F1040B23460F2709F147
:10033000040AABF1040EC9E00125A5402A40AA42F7
:100340007DD1674ED1F804C0ACEB0608B44532D07D
:1003500014DCBCF1030F3AD009DCBCF1000F2AD049
:10036000BCF1010F1CD0BCF1020F31D11DE0BCF17A
:10037000110F17D0BCF1120F2AD119E0B8F5881F60
:1003800019D006DCB8F5803F15D0B8F5801F1FD115
:1003900011E0B8F5001F0ED0B8F5041F18D10AE01F
:1003A000CB6815E0CB681B1D12E0CB6808330FE06B
:1003B000CB680C330CE08B682BB1012B4FF008039A
:1003C00003D0456104E0042302E0056100E000235E
:1003D000FF2A01D8064601E000F104064FEA840531
:1003E00001D9A5F12005D6F8008007FA05FC28EA16
:1003F0000C0803FA05F548EA0508C6F800804D68C0
:10040000ED0062D5374DAE6946F00106AE61AD69CB
:1004100024F0030605F001050095334D06EB050CAD
:10042000DCF80850A607360F07FA06F825EA080593
:10043000DFF8B880404503D14FF0000817E044E0F2
:10044000DFF8AC80404502D14FF001080FE0DFF843
:10045000A480404502D14FF0020808E0DFF8988000
:10046000404502D14FF0030801E04FF0040808FABC
:1004700006F848EA0508CCF808804D68D9F800600D
:10048000ED024D4601D5164300E096432E604D68BF
:10049000DAF80060AD02554601D5164300E09643F8
:1004A0002E604D68DBF80060AD035D4601D5164354
:1004B00000E096432E604D68DEF80060ED0375465F
:1004C00001D5164300E096432E60641C0D682A4651
:1004D000E5407FF431AFBDE8F88F0000080401402B
:1004E000000011100010024000000140000801400F
:1004F000000C0140001001400014014001488068D8
:100500007047000078020020024881680278114498
:100510008160704778020020074810B5016841F0FB
:1005200010010160032000F067F80F2000F006F8CA
:1005300000F024F8002010BD0020024070B50D4DE1
:1005400004464FF47A712878B1FBF0F00A49096843
:10055000B1FBF0F000F0AEFA48B9102C07D200223F
:100560002146501E00F028F800206C6070BD01206C
:1005700070BD000078020020840200200C4808B5FD
:10058000816941F001018161816901F001010091FE
:10059000C16941F08051C161C06900F08050009094
:1005A0000448416821F0E06141F00071416008BDFC
:1005B0000010024000000140F0B40E4B1B680C46D6
:1005C000C3F30223C3F10705042D00D90425191D27
:1005D000072901D2002300E0DB1E012606FA05F1FF
:1005E000491E214099409E40761E16403143F0BC82
:1005F00000F0CCBE0CED00E0064900F007020868F0
:100600004FF6FF03184040EA0220034A10430860F7
:10061000704700000CED00E00000FA052DE9F047FE
:100620000F46050061D0434E306800F00700B84225
:1006300009D2306820F0070038433060306800F09D
:100640000700B84251D128683B4C810712D54007BA
:1006500003D5606840F4E06060602878000703D547
:10066000606840F4605060606068A96820F0F00045
:10067000084360602878C00728D06868012810D037
:100680002168022810D0890700292EDA616821F03C
:10069000030101436160FFF731FF804641F2883971
:1006A0000DE021688903EFE78901EDE7FFF726FFF9
:1006B000A0EB0801494502D90320BDE8F087606836
:1006C000696800F00C00B0EB810FEFD1306800F0EA
:1006D0000700B8420BD9306820F00700384330607B
:1006E000306800F00700B84201D00120E5E7287823
:1006F000400705D56068E96820F4E0600843606061
:100700002878000706D56068296920F4605040EA1F
:10071000C100606000F018F86168084AC1F3031175
:10072000515CC8400649086006480068FFF706FFAC
:100730000020C2E70020024000100240862A000884
:10074000840200207C0200200E4A51680E4801F00D
:100750000C03042B11D0082B0FD10C48C1F3834399
:10076000C903C05C0AD55168084AC1F34041921ED2
:10077000515C054A5043B0FBF1F0704704494843CF
:10078000704700000010024000127A00762A00082C
:1007900000093D002DE9F84F040070D02078C04DCD
:1007A000C00749D06868C0F38100012807D0686895
:1007B000C0F38100022809D16868C00306D5286803
:1007C000800339D560680028E7D035E06068B0F56F
:1007D000803F0BD010B1B0F5A02F11D0286820F4C5
:1007E00080302860286820F4802002E0286840F4E7
:1007F00080302860606890B1FFF780FE06460AE00E
:10080000286840F480202860F0E700BFFFF776FEFC
:10081000801B642873D828688003F7D50CE0FFF7A5
:100820006DFE064605E000BFFFF768FE801B6428EA
:10083000F0D828688003F7D420789A4E80074FF0CC
:1008400001094FF0000839D5686810F00C0F07D087
:100850006868C0F38100022809D16868C00306D423
:100860002868800714D52069012808D110E0206984
:10087000B0B1C6F80090FFF741FE074605E00AE177
:10088000FFF73CFEC01B0228C4D828688007F7D5B4
:100890002868616920F0F80040EAC10028600DE096
:1008A000C6F80080FFF72AFE074604E0FFF726FEA1
:1008B000C01B022823D828688007F7D420780007B7
:1008C0002CD57948A169D9B1C0F80090FFF716FE80
:1008D000074604E0FFF712FEC01B02280FD8686A23
:1008E0008007F7D571484FF4FA510068B0FBF1F07A
:1008F000009000BF0098411E0091FAD20EE080E007
:10090000C0F80080FFF7FAFD074604E0FFF7F6FDA8
:10091000C01B022875D8686A8007F7D42078400782
:1009200060D5E8690027C00008D4E86940F080502D
:10093000E861E869012700F0805000905C48016898
:10094000C90513D40168834641F480710160FFF743
:10095000D5FD824606E000BFFFF7D0FDA0EB0A0000
:1009600064284ED8DBF80000C005F5D5E068012802
:100970000AD008B1052813D0286A20F001002862A7
:10098000286A20F0040002E0286A40F00100286292
:10099000E06841F2883B98B1FFF7B0FD82460BE07A
:1009A000286A40F004002862EEE700BFFFF7A6FDCA
:1009B000A0EB0A0159455AD8286A8007F6D50CE001
:1009C000FFF79CFD824605E0FFF798FDA0EB0A01CA
:1009D00059454CD8286A8007F6D41FB1E86920F041
:1009E0008050E861E06988B36968C1F38101022938
:1009F00044D00228C6F8608004D0FFF77FFD04468B
:100A000038E034E0FFF77AFD074604E0FFF776FDB3
:100A1000C01B02282BD828688001F7D4206AB0F5C3
:100A2000803F05D16868A16820F400300843686001
:100A3000D4E908010843696821F474110843686027
:100A4000C6F86090FFF75AFD044606E025E000BFB7
:100A5000FFF754FD001B022809D828688001F7D54C
:100A60001BE000BFFFF74AFD001B022802D903204C
:100A7000BDE8F88F28688001F4D40EE00128F7D093
:100A80006868226A00F48031914204D1616A00F4FE
:100A90007010884201D00120EAE70020E8E700005A
:100AA00000100240000042428004424284020020C2
:100AB0000070004010B5401EB0F1807F01D30120CE
:100AC00010BD4FF0E02460610F21601700F05EFC64
:100AD0000020A06107202061002010BD10B590F813
:100AE0003C20012A22D0012280F83C20CA688C6870
:100AF00022F4407222434C6822F4806222430C6844
:100B000022F4006222430C6922F4805222434C6991
:100B100022F400522243C969002322F480420A438E
:100B200001684A6480F83C30002010BD022010BDEE
:100B300070B590F83C20012A26D0012480F83C4072
:100B4000022280F83D2003685A689D6822F07006F2
:100B50000A6832435A600D4B02689A4208D0B2F1DB
:100B6000804F05D00A4B9A4202D00A4B9A4204D1D8
:100B7000496825F080031943916080F83D400021C9
:100B800080F83C10084670BD022070BD002C01406A
:100B9000000400400008004010B5040003D094F8A1
:100BA0003D0010B107E0012010BD002084F83C009A
:100BB000204600F01FF8022084F83D00211D206827
:100BC00000F0AEFA012084F8460084F83E0084F874
:100BD0003F0084F8400084F8410084F8420084F823
:100BE000430084F8440084F8450084F83D00002068
:100BF00010BD000008B50C4A01680C48914207D1AD
:100C0000816941F400618161806900F4006009E05C
:100C1000074A914207D1C16941F00401C161C0692D
:100C200000F00400009008BD002C014000100240BC
:100C30000008004070B5044690F83C0000250128EB
:100C400017D0012684F83C60022084F83D0020681B
:100C5000826822F0770222F47F428260086850287E
:100C600038D00DDC20284FD005DC90B3102811D1EE
:100C70004AE0022070BD302846D040280AD13BE02F
:100C800060282FD070280DD0B0F5805F03D0B0F56C
:100C9000005F12D0012584F83D60002084F83C00FC
:100CA000284670BDCB68D1E90121206800F081FAA7
:100CB0002068816841F0770109E0CB68D1E9012122
:100CC000206800F076FA2068816841F480418160F4
:100CD000E1E719E0CA684968206800F01FFB50216D
:100CE000206806E0CA684968206800F028FB602197
:100CF000206800F068FACEE7CA684968206800F00A
:100D00000DFB40212068F4E7226801461046F0E719
:100D100000B585B000210091019102910391006816
:100D20000B49884212D10B48816941F0040181616D
:100D30008069694600F0040004904FF470600090F0
:100D40000220019003900448FFF7E8FA05B000BDC7
:100D5000002C0140001002400008014070B504461C
:100D600090F83C0000260D4601280FD0012084F8A1
:100D70003C006AB1042A1DD0082A2FD00C2A3FD08B
:100D80000126002084F83C00304670BD022070BD72
:100D9000206800F021FA2068816941F00801816132
:100DA0002068816921F004018161206881692A69D4
:100DB000114311E0206800F037FA2068816941F49E
:100DC000006181612068816921F48061816120680E
:100DD00081692A6941EA02218161D2E7206800F035
:100DE0004FFA2068C16941F00801C1612068C169FA
:100DF00021F00401C1612068C1692A69114311E031
:100E0000206800F069FA2068C16941F40061C1619D
:100E10002068C16921F48061C1612068C1692A69C3
:100E200041EA0221C161ACE710B5040003D094F897
:100E30003D0010B107E0012010BD002084F83C0007
:100E4000204600F01EF8022084F83D00211D206895
:100E500000F066F9012084F8460084F83E0084F82A
:100E60003F0084F8400084F8410084F8420084F890
:100E7000430084F8440084F8450084F83D000020D5
:100E800010BD704710B50446022249B104290ED0A6
:100E9000082913D094F84100012816D0012010BD74
:100EA00094F83E000128F9D184F83E200FE094F830
:100EB0003F000128F2D184F83F2008E094F8400078
:100EC0000128EBD184F8402001E084F84120012280
:100ED000206800F061F90F492068884203D1426C14
:100EE00042F4004242642068884208D0B0F1804F4A
:100EF00005D00949884202D00849884204D1816856
:100F000001F00701062903D0016841F001010160E9
:100F1000002010BD002C01400004004000080040EB
:100F2000FEE70000094808B5816941F020018161B0
:100F3000816901F020010091816941F00401816122
:100F4000806900F00400009008BD0000001002401D
:100F500010B596B000240F94109411941294139429
:100F60001C2168461494FFF74FF9202107A8FFF7CA
:100F70004BF936483449016040F2CF21C0E90114F1
:100F800040F2CF71C0E9031444618461FFF704FEAD
:100F900008B1FFF7AEF94FF480500F900FA92B481E
:100FA000FFF748FE08B1FFF7A4F92848FFF73CFF18
:100FB00008B1FFF79EF9139413A924481494FFF77E
:100FC000B7FD08B1FFF795F9602000904FF47A70F3
:100FD000CDE90104039404940594002269461B485A
:100FE0000694FFF7BBFE08B1FFF783F904226946B8
:100FF00016480194FFF7B2FE08B1FFF77AF908220C
:1010000069461248FFF7AAFE08B1FFF772F90C22F1
:1010100069460E48FFF7A2FE08B1FFF76AF9079488
:10102000089409944FF400500A94CDE90B4007A9A5
:1010300006480E94FFF752FD08B1FFF75AF903482E
:10104000FFF766FE16B010BD002C01409402002090
:1010500010B586B0002416480094019402940394BD
:10106000049412490594C0E900144FF6FF71C0E9D9
:10107000024104618461FFF78FFD08B1FFF739F980
:101080004FF48050009069460948FFF7D3FD08B13E
:10109000FFF72FF9049404A905480594FFF748FDCC
:1010A000002801D0FFF725F906B010BD0008004068
:1010B000DC020020FEE7FEE770477047FFF724BA26
:1010C00030B58FB028216846FFF79EF814210AA892
:1010D000FFF79AF801210804CDE9001000240294DA
:1010E00002250491CDE907504FF4E01009906846BD
:1010F000FFF750FB08B172B6FEE70F20CDE90A05F5
:101100004FF48060CDE90C4002210AA80E94FFF74D
:1011100085FA002801D072B6FEE70FB030BD7047E7
:10112000F0B50268194B1A4C1A4D4FF0804798429F
:1011300005D0B84203D0A04201D0A84203D122F08A
:1011400070064A683243984205D0B84203D0A042A4
:1011500001D0A84203D122F44074CA6822434C69EA
:1011600022F08002224302608A68C2620A688262B8
:10117000984201D109690163012141610169C907EF
:1011800003D0016921F001010161F0BD002C014093
:10119000000400400008004010B501F01F030121C9
:1011A000046A99408C430462016A9A4011430162C7
:1011B00010BD10B5846842EA032224F47F440A4338
:1011C0002243826010BD826822F070020A4342F01E
:1011D000070181607047000030B5036A026A22F09F
:1011E000010202624268846924F073050C682C4392
:1011F00023F002058B682B430A4DA8420BD123F044
:101200000805CB6822F440722B434D6923F0040398
:1012100015438A692A4342608461496841630362D5
:1012200030BD0000002C014030B5026A036A23F093
:1012300010030362436884690D6824F4E64444EAB9
:1012400005248D6822F0200242EA05120B4DA842C7
:101250000ED1CD6822F0800242EA05124D6923F4D6
:10126000406343EA85038D6922F0400243EA850327
:101270004360846149688163026230BD002C014093
:1012800030B5036A026A22F4807202624268C4695D
:1012900023F4007324F073050C682C438D6843EA33
:1012A00005230C4DA8420ED1CD6823F4006343EA18
:1012B00005234D6922F4405242EA05128D6923F458
:1012C000806342EA05124260C4614968C1630362F7
:1012D00030BD0000002C014030B5046A026A22F4DF
:1012E000805202624268C3690D6823F4E64343EA10
:1012F00005238D6824F4005444EA0534064DA842C1
:1013000004D14D6922F4804242EA85124260C361F1
:1013100049680164046230BD002C014010B5036AC5
:10132000046A24F001040462846924F0F00444EAAD
:10133000021423F00A020A438461026210BD10B550
:10134000036A046A24F010040462846923F0A00391
:1013500024F4704444EA023243EA011182610162DA
:1013600010BDFEE7490050EAC12018BF04204A0D15
:1013700018BF40F0010040F2FF72B2EB515F08BFAE
:1013800040F00200012808BF052070470907090E38
:10139000002804DB00F1E02080F80014704700F022
:1013A0000F0000F1E02080F8141D70472DE9F04196
:1013B0004F1E00EBC7010446D1E9000115461E4649
:1013C00037F006020DD02A46334600F0CBFF7F1ED1
:1013D00004EBC703D3E9002300F008FD37F0060251
:1013E000F1D1022F25D0042F13D0062F18BFBDE84E
:1013F000F0812A46334600F0B5FFD4E90A2300F015
:10140000F5FC2A46334600F0ADFFD4E9082300F08E
:10141000EDFC2A46334600F0A5FFD4E9062300F090
:10142000E5FC2A46334600F09DFFD4E9042300F092
:10143000DDFC2A46334600F095FFD4E9022300F094
:10144000D5FC2A46334600F08DFFD4E90023BDE8E1
:10145000F04100F0CBBC012201F0C6BA00F0C6BCDE
:10146000002213461046114600F07CBD024A0020BF
:10147000110701F0B9BA000001FDFFFF2DE9F04DA1
:101480000546DFF8388221F000408D4F82B00C46CF
:10149000404520DBA0EB080129430BD08949884255
:1014A00001DC10D17DB102B028462146BDE8F04DE7
:1014B000FFF7D1BF002CC7BF002001468248394644
:1014C00002B0BDE8F08D0120FEF7CDFE02B0BDE810
:1014D000F04DFFF7C5BF7D49884244DA7C4981421F
:1014E000A1BF79487B4902B0BDE8F08D2A4623466A
:1014F0001046194600F036FF8346024676480E46EF
:101500000B4606217844FFF751FF5A46334600F058
:1015100029FF074671488A465A46334604217844D3
:10152000FFF744FF5A46334600F01CFF00224346B3
:1015300000F05CFC02460B463846514600F012FDB6
:101540002A46234600F00EFF654A664B01F03EF83E
:101550002A46234601F03AF802B05B4ABDE8F04D56
:101560005C4B01F033B8002C4FF000024BDA4646DA
:1015700043462846214600F039FC4FF0FF3201F087
:1015800033FA0446024658480D460B460621784475
:10159000FFF70CFF22462B4600F0E4FE804653483E
:1015A0008A4622462B4604217844FFF7FFFE224656
:1015B0002B4600F0D7FE0022334600F017FC06460B
:1015C0008B462046294600F0EBFB04460D4632468A
:1015D0005B464046514600F0C5FC22462B4600F0D3
:1015E000C1FE3F4A3F4B01F0E3F822462B4600F094
:1015F000FDFB012201F0F8F902B03B46BDE8F04DD9
:10160000314A00F0E3BF2D4B2846214600F0DEFFB3
:101610004FF0FF3201F0E8F905460E4600F0C0FB3E
:1016200000270C4680463A460B4600F0DFFB824618
:101630008B463A4623461046194600F093FE2A464A
:10164000334600F0C3FF52465B4600F08BFC8246F7
:1016500027488B462A46334606217844FFF7A6FEE4
:101660002A46334600F07EFECDE9000121482A4695
:10167000334604217844FFF799FE2A46334600F0AA
:1016800071FE00220D4B00F0B1FB02460B46DDE976
:10169000000100F067FC4246234600F063FE52461C
:1016A0005B4600F0A3FB3A46234600F09FFB02B0E6
:1016B0000122BDE8F04D01F097B900000000F03FB5
:1016C000FB2109400000F07F182D44540000E03F4A
:1016D0000000603CFB21F93F90150000A6150000BA
:1016E000075C143326A6913C061500001C1500006B
:1016F0003A140000501400002DE9F84F04460D463E
:1017000021F0004000917349814211DC7249884206
:1017100001DC06D12CB120462946BDE8F84FFFF781
:101720009ABE6E48002DCCBF6D496E49BDE8F88F5A
:101730006D49814211DD6D498142D8BF4FF0FF36BE
:101740006DDD20462946FFF70DFE042808BFFFF790
:101750008DFE20462946BDE8F88F6549654F25F086
:101760000045814233DD6449814219DD002632465D
:101770004FF080432046294600F038FB80468A46D9
:1017800001222046294601F02FF900223B4601F0B4
:101790000FF84246534600F0E5FB04460D463EE096
:1017A00001260022BA463B462046294600F01EFB91
:1017B00080460F46002253462046294600F0F8FF97
:1017C00042463B4600F0CEFB04460D4627E04B491F
:1017D00081421BDDDFF828A1022600225346204665
:1017E000294600F0BFFD00223B4600F0FFFA80468C
:1017F0000F46002253462046294600F0D9FF4246B4
:101800003B4600F0AFFB04460D4608E003262246A7
:101810002B4600203B4900F0A5FB04460D4622461E
:101820002B461046194600F09DFD8B468246024627
:101830000B4600F097FD07460246334888460B46A4
:1018400006217844FFF7B2FD52465B4600F08AFD60
:1018500082462E488B463A46434605217844FFF798
:10186000A5FD3A46434600F07DFD02460B46002E9C
:10187000504659460CDA00F0B9FA22462B4600F0E1
:1018800071FD01B022462B46BDE8F04F00F09EBE30
:1018900000F0ACFA22462B4600F064FD1C4A7A4464
:1018A00002EBC603D3E9002300F082FF22462B4659
:1018B00000F07EFF174A7A4402EBC603D3E9002307
:1018C00000F084FE009A002AB8BF81F00041BDE814
:1018D000F88F0000000010440000F07F182D4454E1
:1018E000FB21F93FFB21F9BF0000DC3F0000203E57
:1018F0000000F33F0000F03F0000E63F008003409F
:101900000000F83F0000F0BF0A130000C8120000FA
:10191000661200002E1200002DE9F04D9446CCF125
:10192000000423F000464CEA0404594F46EAD474FC
:101930009A46884621F00042BC4206D8454240EA19
:10194000050442EAD474BC4204D9BDE8F04D6246B5
:10195000FFF784BDAAF14055A5F17F6555EA0C0457
:101960000BD0022404EAAA744A4DDFF82CE144EAC1
:10197000D87452EA000B04D00CE0BDE8F04DFFF73C
:10198000BBBE002C14BF012CBDE8F08D022C30D062
:10199000032C32D056EA0C0B0AD0BE4220D1BA42F8
:1019A00009D126F0804622F080423346114617E0E6
:1019B00000291ADB25E0DFF8E4B0FB44002C04BF6B
:1019C000DBE90001BDE8F08D012C02BFDBE900017D
:1019D00081F00041BDE8F08D022C0AD0032C0CD020
:1019E000BA4212D1B8F1000F0BDA2A482C49BDE8EF
:1019F000F08D28462B49BDE8F08D28467146BDE89C
:101A0000F08D24482849BDE8F08D921B12153C2A20
:101A1000C4BF204F244E10DCBAF1000FBEBF12F13C
:101A20003C0F00273E4608DB624600F09BFA21F09F
:101A30000041FFF761FE07460E4694B1012C08BF36
:101A400086F000460DD0194A194B022C3846314613
:101A500015D000F0ADFE2A46BDE8F04D114B00F068
:101A6000A7BE002213463846314600F0D3FB04BF20
:101A70000220FEF7F8FB38463146BDE8F08D00F055
:101A800097FE2A46BDE8F04D064B00F09FBD0000D2
:101A90000000F07F182D4454FB2109C0C211000042
:101AA000FB21F9BFFB210940FB21F93F075C1433FF
:101AB00026A6A13C2DE9FE4F8A46D0E904C1D0E913
:101AC0000245D0E900678B4632463B462946204610
:101AD000CDF808C0FFF720FFCDE900012B462246D4
:101AE0001946104600F03EFC04460D4632463B4681
:101AF0001046194600F036FC22462B4600F076F9D7
:101B000000F04EF98046894600225B4B5946029808
:101B100000F04EFE06460F4602460B4600F022FC41
:101B200004460D4642464B461046194600F01AFC44
:101B300022462B4600F05AF900F032F904460D46D1
:101B400000224E4B00F00CFD06D322462B4600200F
:101B50004B4900F005FD03D24FF0FF31CAF80010E9
:101B600042464B4630463946FFF7D6FE8046894608
:101B70000022444B2046294600F0F4FB06460F465F
:101B800022462B461046194600F0ECFB8B460446D5
:101B900000223D4B00F02AF900223C4B00F008FEE9
:101BA00032463B4600F0DEF9FFF768FC42464B4602
:101BB00000F01CF905460E46204659460022344BDB
:101BC00000F004FD0022334B00F0CCF9FFF756FC87
:101BD000314A324B00F0FAFC04460F46DDE90001C1
:101BE0002D4A2E4B00F0BEF900222D4B00F0BAF921
:101BF000DFF8B0B02C4B5A4600F0B4FBDFF8AC90E5
:101C00005A464B4600F0F2F8DFF8A4800022434623
:101C100000F0A8FB00F03AFBCAF800001E4A1F4B78
:101C20002846314600F09EF95A461F4B00F09AFBB9
:101C30005A464B4600F0DAF80022434600F092FB89
:101C400000F024FBCAF80400134A144B204639461E
:101C500000F088F95A46144B00F084FB5A464B4674
:101C600000F0C4F80022434600F07CFB00F00EFBBD
:101C7000CAF80800BDE8FE8F0040554000F07640ED
:101C800000A0604000406D4080BCCA408084EE40AF
:101C9000D099F2408090EC406E861BF0F92109400B
:101CA0000000F83F9A9999999999B93F9999993F64
:101CB00000409F40FEF730FCFFF702FAFFF732F9D1
:101CC000FFF746F9FFF7C4F900211848FFF7DAF8E3
:101CD00004211648FFF7D6F808211448FFF7D2F878
:101CE0000C211248FFF7CEF8104C322021684863CF
:101CF0002068B42585632068C56321689620086440
:101D00004FF4FA60FEF7F8FA09480A4A03C800F0EF
:101D100013F808482268016851632268416891639A
:101D200021688068C86320680564FEE7940200208B
:101D3000000000208802002070B5B0F1FF3F21D0E4
:101D4000154C002580B101280DD1216804F5E470FF
:101D500000EB41101146FFF7ADFE2068401C2060EB
:101D6000042800DD256070BD0C48616800EB41105F
:101D70001146FFF79FFE6068401C60600428F2DD9A
:101D8000656070BD0448BDE87040083000EB41104C
:101D90001146FFF78FBE0000100000203801002020
:101DA0002DE9F04106460F4600F01CFC041E0D46CE
:101DB00018BF0120284320F00040C0F17F6000F1EF
:101DC000E040C00F0ED0301C18BF0120384320F077
:101DD0000040C0F17F6000F1E040C00F04BF01206F
:101DE000FEF741FA20462946BDE8F08110B591EA98
:101DF000030F48BF83F0004300F1E284841A71EBC3
:101E0000030C05D2121943EB0C03001B61EB0C0110
:101E1000DFF824E14FEA1154A4EB135C1EEA430FF0
:101E200018BF9EEA445F73D023EA0E03DCF1200E54
:101E300021EA045143F4801332D322FA0CFE10EB52
:101E40000E0023FA0CFE41EB0E01CCF1200E03FA3A
:101E50000EFE10EB0E0051F10001B1F5801FCCF128
:101E6000200E32D201EB045112FA0EF2BDE81040FE
:101E700058BF7047401C38BF5FEA420218BF704726
:101E8000002814BF20F0010041F100014FEA410396
:101E900013F5001F38BF7047A1F1C04100F05ABBD5
:101EA000012A43EB0302ACF1200CDCF11F0E32BF20
:101EB0004FF0000E23FA0CF310EB030041EB04513A
:101EC000B4EB115FD0D0A1EB045101F580114908AA
:101ED0005FEA300001EB04510ED350F1000038BF2F
:101EE00012FA0EFE08D1BDE81040C9E7401C38BF09
:101EF0005FEA4202CAD1C3E7BDE810404FEA41039E
:101F000013F5001F38BF7047A1F1C04100F022BB9C
:101F10009EEA445F08D011EA5E0FBDE8104004BF9E
:101F200001F0004100207047BDE8104070B500F09E
:101F3000C3FA00BF64FBBE3E0000E0FF02494FF061
:101F4000000000F01FBD00BF0000F87F491058BF1F
:101F5000C1F140415B1058BFC3F140438B42EFF3E6
:101F6000008070472DE9C04130B4DFF8A0C23CEAE0
:101F7000111418BF3CEA131400F0EC8081EA030549
:101F80001CEA111444EAD57418BF1CEA131500F0BA
:101F9000C780A4EB05044FF0004545EAC12145EA9E
:101FA000C32341EA505143EA525304F17F749942EA
:101FB00004F500344FEAC0204FEAC22208BF904225
:101FC00000F09C804FEA13650FF24016765D4FEAF1
:101FD000134506FB05F7C7F1807706FB07F74FEAC5
:101FE000D737A7FB03687642C8F58038A7FB06CE33
:101FF00038BFA8F1010807FB08E64FF0000EA6FB6A
:10200000028CE6FB03CEDCF1000CCEF1004E38BFB3
:10201000AEF1010EA6FB0C584FF000074FF0000583
:10202000E6FB0E87A1FB08C6A0FB07CE16EB0E064B
:1020300045F10005E1FB076515F1E04E7EBFA4F513
:1020400080345FEA46066D4116F1800745F10005D0
:102050004FEA17274FEA066647EA0567A6F1DE460C
:10206000B6F1805F4FEA15251FD9384624F0010CE0
:1020700005EBC471BCF1FE6F01EB0C1102D8F0BC92
:10208000BDE8008124425CBF01F5801E9EEAC47F4A
:1020900002D4F0BCBDE80081244238D4F0BCA1F1E8
:1020A000C041BDE8004100F055BA4FEAD22242EAF1
:1020B00043524FEAD323A7FB02864FEAD02040EADF
:1020C000415007FB03661EEA0E0F4FEAD12105FBC4
:1020D000026658BFA6EB0056B6EB00564FEA520E0A
:1020E0004EEAC37E18EB0E0E56EB530EBDD518EB21
:1020F00002085E417F1C55F10005B6E74FF48015DC
:102100004FF000074FF000064FF00008ADE7F0BCBD
:102110004FF0000001F1C04101F00041BDE8008135
:1021200011EA0C1F0CEA131500D00CE013EA0C1F87
:1021300000F025804FF00000F0BC81EA030101F0BF
:102140000041BDE80081F0BCBDE8004181EA030127
:1021500000F000BAF0BCBDE8004170B500F0ACF989
:10216000097EFC3E00F007B881EA03014FF0000051
:1021700001F00041704781EA030100F0EBB9F0BCC7
:10218000BDE800414FF0000021497047FFFDFBF919
:10219000F7F5F4F2F0EEEDEBE9E8E6E4E3E1E0DE9A
:1021A000DDDBDAD8D7D5D4D3D1D0CFCDCCCBCAC80C
:1021B000C7C6C5C4C2C1C0BFBEBDBCBBBAB9B8B733
:1021C000B6B5B4B3B2B1B0AFAEADACABAAA9A8A826
:1021D000A7A6A5A4A3A3A2A1A09F9F9E9D9C9C9BF4
:1021E0009A9999989797969595949393929191909F
:1021F0008F8F8E8E8D8C8C8B8B8A89898888878730
:102200008685858484838382828181800000FF07A4
:102210000000F87F51EA030C17D41CF5801F58BF4B
:10222000BCF5801F00F10680994218BF704708BFB7
:102230009042704707D711F5801F58BF13F5801FD4
:1022400019D499427047894270471CF5801F08D500
:10225000BCF5801FF7D58B4218BF704708BF82427C
:1022600070474FF4001C1CEB410F38BF1CEB430FB1
:1022700001D28B42704770B500F01EF992244900DC
:102280004FF000514FF08053FFF760BE4FEA41031B
:102290004FEA5353A3F58063D3F11E03C8BFD3F1B4
:1022A000210C0CDD4FF0004242EAC12242EA5052BA
:1022B00032FA03FC8CEAE17CACEBE1707047102B46
:1022C000C4BF0020704703F5787CBCF1FF3F04D009
:1022D0006FF0004282EA2100704770B500F0ECF820
:1022E0004992248000207047F2E7000051EA030C75
:1022F00017D41CF5801F58BFBCF5801F00F1068065
:10230000994218BF704708BF9042704707D711F530
:10231000801F58BF13F5801F19D499427047894216
:1023200070471CF5801F08D5BCF5801FF7D58B4280
:1023300018BF704708BF824270474FF4001C1CEB67
:10234000410F38BF1CEB430F01D28B42704770B571
:1023500000F0B2F8922449004FF000514FF0805342
:10236000FFF7F4BDDFF848C170B51CEA111E1EBFAF
:102370001CEA13159EEA0C0F95EA0C0F00F06F8013
:1023800081EA030423EA4C134EEAD47E21EA4C117D
:1023900041F4801143F48013AE44A1FB024CA0FB36
:1023A0000365AEF17F7E361955EB0C05A1FB034C9E
:1023B0004CF10003A0FB021C16EB0C06654153F127
:1023C0000003094218BF46F0010613F4007F0BD149
:1023D0004FEA03314FEA0530340341EA155140EA30
:1023E00016506FF003020AE04FEAC3214FEAC520FE
:1023F000F40241EA555140EA56506FF0020202EBF6
:102400002E4201EB025585EACE710AD05FEA440CF8
:1024100018BF24F0004450F1000041F1000120EA0F
:10242000D47040F2FE7C624500D270BDA84214BF59
:102430004FF080444FF04044002E08BF0024BEF10E
:10244000806FA8BFA1F1C041BDE8704080F28280DA
:102450004FF0000001F1C04101F0004170479EEAD9
:102460000C0F0CEA131518BF95EA0C0F06D04FF0AD
:10247000000081EA030E0EF0004170BD00F01CF870
:102480008900013E00F007B800F009B84FEA430C9C
:102490005FEA5C5C08D081EA030100F05BB84FEAB8
:1024A000410C5FEA5C5CF6D14FF0000001497047D7
:1024B0000000FF070000F87F0EF1020E2EF0030E61
:1024C0005EF8046B364205D4012A43EB030515F58B
:1024D000001F12D8012841EB010C1CF5001F0CD87D
:1024E0000ED14FEAD17C15F5001F0CEB4C0C0CF112
:1024F000020C08BF4CEBD37C04E04FF0080C01E069
:102500004FEAD37C0CEB4C0526FA05F606F00706DD
:10251000B6F1040C06D20EEB860CBDE870404CF010
:10252000010C6047DFE80CF0090B02024FF000419C
:102530004FF00000A1F5002170BD1946104601289A
:1025400051EB010418BFD4F5001484BF002001F042
:10255000004170BD0808A0F500114FEA3101704735
:1025600053EA010C17D41CF5801F58BFBCF5801F1F
:1025700000F106808B4218BF704708BF8242704747
:1025800007D713F5801F58BF11F5801F19D48B4250
:1025900070479B4270471CF5801F08D5BCF5801F13
:1025A000F7D5994218BF704708BF904270474FF463
:1025B000001C1CEB430F38BF1CEB410F01D29942AA
:1025C00070470FB40CBC03BCFFF7C1BE91EA030F08
:1025D00010B581F000413FF511AC83F0004300F0ED
:1025E000EFB800002DE9F04101F5801CBCF5001F9B
:1025F000C0F2C3804FEA115C21EA0C510CF1FD0CD2
:1026000041F480115FEA5C0C0CF5C07C01D3400002
:1026100049413DA4890241EA905187028E0E0A0C7D
:10262000A45D04FB04F602FB06F6C6F14046A4FBDB
:102630000662F60D46EA422606FB06F4A4FB0123D9
:102640005242C3F1404338BF5B1EA6FB0242002446
:10265000E6FB0324D20B42EA4446A6FB0623A1FB79
:1026600002E2A3FB07E4A4184FF0000252F10002BB
:10267000E3FB01426442C2F1404E38BFAEF1010EAD
:10268000A6FB04234FF00002E6FB0E32A2FB03463A
:102690004FF00004B61954F10004E2FB0264A1FB00
:1026A00006E6A4FB07E816EB08064FF0000858F111
:1026B0000008E4FB01687642C8F1405838BFA8F131
:1026C0000108A2FB06E4A3FB08E52D194FF0000466
:1026D00054F10004E2FB0854A1FB05E6A7FB04E863
:1026E00018EB06084FF0000656F10006E1FB0486E1
:1026F00018F1200556F10006A809A8F11B08B10938
:1027000008F03F08B8F10A0F40EA86601CD901EBD7
:102710000C51BDE8F08100BFFCF5EEE8E2DDD8D356
:10272000CFCBC7C3C0BDB9B6B4B1AEACA9A7A5A342
:10273000A19F9D9B9A9896959392908F8D8C8B8953
:102740008887868584838281A0FB006800FB01F274
:1027500008EB4208B8EB872807D5341858EB01047A
:10276000D5D5401C51F10001D1E7341A78EB0104B2
:10277000CDD4401E71F10001C9E75FEA4C0C5FEA5D
:102780009C5C0DD105D34FF0000001F00041BDE885
:10279000F081BDE8F04170B5FFF78EFE6DDBFFBE46
:1027A000BDE8F0414FF00000004970470000F87F9D
:1027B00010B591EA030F48BF83F000433FF51EAB0D
:1027C000841A71EB030C07D212198CF0004C43EB06
:1027D0000C03001B61EB0C01DFF8A4E14FEA11547C
:1027E000A4EB135C1EEA430F18BF9EEA445F00F09F
:1027F000B08023EA6E03524221EA0451C3EB6E0318
:1028000038BF5B1EDCF1200E25D322FA0CFE10EB44
:102810000E0043FA0CFE41EB0E01CCF1200E03FA40
:102820000EFE10EB0E0051F10001CCF1200E29D468
:1028300012FA0EF201EB0451BDE8104058BF704788
:10284000401C1CBFB2F1004F704700280CBF491C50
:1028500020F00100704712EB020E43EB030218BF99
:102860004FF0010E4EEA4202ACF1200CDCF11E0EDC
:1028700054D943FA0CFE10EB0E0051F1FF31CCF1AC
:102880001E0ED5D50EF1010E12FA0EFE404141EB9F
:10289000010101EB445C5FEA5C5C10D910EBDE7077
:1028A00001EB045138BFBEF1004FBDE8104018BF26
:1028B000704700280CBF491C20F00100704730D23F
:1028C0004FEAD42C11F5001124F400641BD0B1FAA6
:1028D00081F20B3AA41AA41ED2F12003914030FADF
:1028E00003F31943904001EBCC71002C01EB045130
:1028F000BDE81040A8BF704701F1C0414FF0000093
:1029000001F000417047B0FA80F310FA03F100D1F2
:1029100010BDE41A173C4805C90AE4E701EB04516D
:1029200010BD491001EB0451BDE810404FEA3000E2
:1029300002E04FF0000170474A0008BF0042F8D0A3
:10294000B2F5001F28BF704701F000414FF00000B2
:1029500070479EEA445F07D011EA5E0FBDE8104061
:1029600004BF002100207047BDE8104070B5FFF79C
:10297000A3FD00BF40DFF63E83F0004110467047E4
:102980000000E0FF0CF00F03092B08BF082000F047
:1029900059800A2B0BD0082B18BF704708BF1CF0BA
:1029A000400F0AD04FF000004FF0000170471CF0BC
:1029B000400F18BF4FF0004070471CF0100F08D0B8
:1029C00020F0704300F07F4242EAD3014FEA4370A7
:1029D000704700F0604021F07F4242EA000201F0BF
:1029E0007F4040EA727070474FF0FF0C4CF4E06C8F
:1029F0001CEA11531CBF9CEA030C9445C2BFDA4287
:102A000001EB02517047002B0DD0BCF1000F0FD02D
:102A1000002A01F00041A4BF41F0E04141F07F6194
:102A20004FF00000704701F000414FF00000704788
:102A300050EA01334FF09B0C18BF4CF0806C7FF4D0
:102A40007DAA70471CF4801F11D01CF4E02F03D026
:102A50006FEACC31490070474FF04050EFF30082ED
:102A600022F0704242EA000282F3008870474FF081
:102A700000007047010202030405060708090A0B5B
:102A80000C0D0E0F101000000000000000000102ED
:102A90000304060708090000555555555555C53F0F
:102AA0007D6FEB0312D6D4BF5544880E55C1C93F84
:102AB0003B8F68B52882A4BF88B20175E0EF493F1B
:102AC00009F7FD0DE13D023F4B2D8A1C273A03C05B
:102AD000C88A599CE52A004059018D1B6C06E6BF47
:102AE00082922EB1C5B8B33F4FBB610567ACDD3FE5
:102AF000182D4454FB21E93F9BF681D20B73EF3F25
:102B0000182D4454FB21F93FE2652F227F2B7A3C9C
:102B1000075C143326A6813CBDCBF07A8807703C55
:102B2000075C143326A6913CC4EB98999999C9BFC8
:102B3000711623FEC671BCBF6D9A74AFF2B0B3BFFD
:102B40009AFDDE522DDEADBF2F6C6A2C44B4A2BFBD
:102B50000D5555555555D53FFF8300922449C23F29
:102B60006E204CC5CD45B73F513DD0A0660DB13F5D
:102B7000EB0D76244B7BA93F11DA22E33AAD903F6F
:102B80000000000000000000A82B0008000000204A
:102B90008802000028010008F82B000888020020A5
:102BA00000070000840100081AFF01410214014CD3
:102BB000804B40085A6B084A5B08110BFDF0BF08B8
:102BC00059085354404BC067084B40600891592046
:102BD0000B1C206C200B1D5070400A1472205B806F
:102BE00056105A7408DA5E400916B809802032017E
:082BF000821013127A000000AC
:04000005080000ED02
:00000001FF
